{
  "_format": "hh-sol-artifact-1",
  "contractName": "PropertyNFT",
  "sourceName": "contracts/PropertyNFT.sol",
  "abi": [
    {
      "inputs": [
        {
          "internalType": "address",
          "name": "initialOwner",
          "type": "address"
        }
      ],
      "stateMutability": "nonpayable",
      "type": "constructor"
    },
    {
      "inputs": [
        {
          "internalType": "address",
          "name": "sender",
          "type": "address"
        },
        {
          "internalType": "uint256",
          "name": "tokenId",
          "type": "uint256"
        },
        {
          "internalType": "address",
          "name": "owner",
          "type": "address"
        }
      ],
      "name": "ERC721IncorrectOwner",
      "type": "error"
    },
    {
      "inputs": [
        {
          "internalType": "address",
          "name": "operator",
          "type": "address"
        },
        {
          "internalType": "uint256",
          "name": "tokenId",
          "type": "uint256"
        }
      ],
      "name": "ERC721InsufficientApproval",
      "type": "error"
    },
    {
      "inputs": [
        {
          "internalType": "address",
          "name": "approver",
          "type": "address"
        }
      ],
      "name": "ERC721InvalidApprover",
      "type": "error"
    },
    {
      "inputs": [
        {
          "internalType": "address",
          "name": "operator",
          "type": "address"
        }
      ],
      "name": "ERC721InvalidOperator",
      "type": "error"
    },
    {
      "inputs": [
        {
          "internalType": "address",
          "name": "owner",
          "type": "address"
        }
      ],
      "name": "ERC721InvalidOwner",
      "type": "error"
    },
    {
      "inputs": [
        {
          "internalType": "address",
          "name": "receiver",
          "type": "address"
        }
      ],
      "name": "ERC721InvalidReceiver",
      "type": "error"
    },
    {
      "inputs": [
        {
          "internalType": "address",
          "name": "sender",
          "type": "address"
        }
      ],
      "name": "ERC721InvalidSender",
      "type": "error"
    },
    {
      "inputs": [
        {
          "internalType": "uint256",
          "name": "tokenId",
          "type": "uint256"
        }
      ],
      "name": "ERC721NonexistentToken",
      "type": "error"
    },
    {
      "inputs": [
        {
          "internalType": "address",
          "name": "owner",
          "type": "address"
        }
      ],
      "name": "OwnableInvalidOwner",
      "type": "error"
    },
    {
      "inputs": [
        {
          "internalType": "address",
          "name": "account",
          "type": "address"
        }
      ],
      "name": "OwnableUnauthorizedAccount",
      "type": "error"
    },
    {
      "anonymous": false,
      "inputs": [
        {
          "indexed": true,
          "internalType": "address",
          "name": "owner",
          "type": "address"
        },
        {
          "indexed": true,
          "internalType": "address",
          "name": "approved",
          "type": "address"
        },
        {
          "indexed": true,
          "internalType": "uint256",
          "name": "tokenId",
          "type": "uint256"
        }
      ],
      "name": "Approval",
      "type": "event"
    },
    {
      "anonymous": false,
      "inputs": [
        {
          "indexed": true,
          "internalType": "address",
          "name": "owner",
          "type": "address"
        },
        {
          "indexed": true,
          "internalType": "address",
          "name": "operator",
          "type": "address"
        },
        {
          "indexed": false,
          "internalType": "bool",
          "name": "approved",
          "type": "bool"
        }
      ],
      "name": "ApprovalForAll",
      "type": "event"
    },
    {
      "anonymous": false,
      "inputs": [
        {
          "indexed": true,
          "internalType": "address",
          "name": "previousOwner",
          "type": "address"
        },
        {
          "indexed": true,
          "internalType": "address",
          "name": "newOwner",
          "type": "address"
        }
      ],
      "name": "OwnershipTransferred",
      "type": "event"
    },
    {
      "anonymous": false,
      "inputs": [
        {
          "indexed": true,
          "internalType": "address",
          "name": "from",
          "type": "address"
        },
        {
          "indexed": true,
          "internalType": "address",
          "name": "to",
          "type": "address"
        },
        {
          "indexed": true,
          "internalType": "uint256",
          "name": "tokenId",
          "type": "uint256"
        }
      ],
      "name": "Transfer",
      "type": "event"
    },
    {
      "inputs": [
        {
          "internalType": "address",
          "name": "to",
          "type": "address"
        },
        {
          "internalType": "uint256",
          "name": "tokenId",
          "type": "uint256"
        }
      ],
      "name": "approve",
      "outputs": [],
      "stateMutability": "nonpayable",
      "type": "function"
    },
    {
      "inputs": [
        {
          "internalType": "address",
          "name": "owner",
          "type": "address"
        }
      ],
      "name": "balanceOf",
      "outputs": [
        {
          "internalType": "uint256",
          "name": "",
          "type": "uint256"
        }
      ],
      "stateMutability": "view",
      "type": "function"
    },
    {
      "inputs": [
        {
          "internalType": "uint256",
          "name": "tokenId",
          "type": "uint256"
        }
      ],
      "name": "dbURI",
      "outputs": [
        {
          "internalType": "string",
          "name": "",
          "type": "string"
        }
      ],
      "stateMutability": "view",
      "type": "function"
    },
    {
      "inputs": [
        {
          "internalType": "uint256",
          "name": "tokenId",
          "type": "uint256"
        }
      ],
      "name": "getApproved",
      "outputs": [
        {
          "internalType": "address",
          "name": "",
          "type": "address"
        }
      ],
      "stateMutability": "view",
      "type": "function"
    },
    {
      "inputs": [
        {
          "internalType": "address",
          "name": "owner",
          "type": "address"
        },
        {
          "internalType": "address",
          "name": "operator",
          "type": "address"
        }
      ],
      "name": "isApprovedForAll",
      "outputs": [
        {
          "internalType": "bool",
          "name": "",
          "type": "bool"
        }
      ],
      "stateMutability": "view",
      "type": "function"
    },
    {
      "inputs": [
        {
          "internalType": "address",
          "name": "to",
          "type": "address"
        },
        {
          "internalType": "string",
          "name": "ipfsURI",
          "type": "string"
        },
        {
          "internalType": "string",
          "name": "databaseURI",
          "type": "string"
        }
      ],
      "name": "mintProperty",
      "outputs": [],
      "stateMutability": "nonpayable",
      "type": "function"
    },
    {
      "inputs": [],
      "name": "name",
      "outputs": [
        {
          "internalType": "string",
          "name": "",
          "type": "string"
        }
      ],
      "stateMutability": "view",
      "type": "function"
    },
    {
      "inputs": [],
      "name": "nextTokenId",
      "outputs": [
        {
          "internalType": "uint256",
          "name": "",
          "type": "uint256"
        }
      ],
      "stateMutability": "view",
      "type": "function"
    },
    {
      "inputs": [],
      "name": "owner",
      "outputs": [
        {
          "internalType": "address",
          "name": "",
          "type": "address"
        }
      ],
      "stateMutability": "view",
      "type": "function"
    },
    {
      "inputs": [
        {
          "internalType": "uint256",
          "name": "tokenId",
          "type": "uint256"
        }
      ],
      "name": "ownerOf",
      "outputs": [
        {
          "internalType": "address",
          "name": "",
          "type": "address"
        }
      ],
      "stateMutability": "view",
      "type": "function"
    },
    {
      "inputs": [],
      "name": "renounceOwnership",
      "outputs": [],
      "stateMutability": "nonpayable",
      "type": "function"
    },
    {
      "inputs": [
        {
          "internalType": "address",
          "name": "from",
          "type": "address"
        },
        {
          "internalType": "address",
          "name": "to",
          "type": "address"
        },
        {
          "internalType": "uint256",
          "name": "tokenId",
          "type": "uint256"
        }
      ],
      "name": "safeTransferFrom",
      "outputs": [],
      "stateMutability": "nonpayable",
      "type": "function"
    },
    {
      "inputs": [
        {
          "internalType": "address",
          "name": "from",
          "type": "address"
        },
        {
          "internalType": "address",
          "name": "to",
          "type": "address"
        },
        {
          "internalType": "uint256",
          "name": "tokenId",
          "type": "uint256"
        },
        {
          "internalType": "bytes",
          "name": "data",
          "type": "bytes"
        }
      ],
      "name": "safeTransferFrom",
      "outputs": [],
      "stateMutability": "nonpayable",
      "type": "function"
    },
    {
      "inputs": [
        {
          "internalType": "address",
          "name": "operator",
          "type": "address"
        },
        {
          "internalType": "bool",
          "name": "approved",
          "type": "bool"
        }
      ],
      "name": "setApprovalForAll",
      "outputs": [],
      "stateMutability": "nonpayable",
      "type": "function"
    },
    {
      "inputs": [
        {
          "internalType": "bytes4",
          "name": "interfaceId",
          "type": "bytes4"
        }
      ],
      "name": "supportsInterface",
      "outputs": [
        {
          "internalType": "bool",
          "name": "",
          "type": "bool"
        }
      ],
      "stateMutability": "view",
      "type": "function"
    },
    {
      "inputs": [],
      "name": "symbol",
      "outputs": [
        {
          "internalType": "string",
          "name": "",
          "type": "string"
        }
      ],
      "stateMutability": "view",
      "type": "function"
    },
    {
      "inputs": [
        {
          "internalType": "uint256",
          "name": "tokenId",
          "type": "uint256"
        }
      ],
      "name": "tokenURI",
      "outputs": [
        {
          "internalType": "string",
          "name": "",
          "type": "string"
        }
      ],
      "stateMutability": "view",
      "type": "function"
    },
    {
      "inputs": [
        {
          "internalType": "address",
          "name": "from",
          "type": "address"
        },
        {
          "internalType": "address",
          "name": "to",
          "type": "address"
        },
        {
          "internalType": "uint256",
          "name": "tokenId",
          "type": "uint256"
        }
      ],
      "name": "transferFrom",
      "outputs": [],
      "stateMutability": "nonpayable",
      "type": "function"
    },
    {
      "inputs": [
        {
          "internalType": "address",
          "name": "newOwner",
          "type": "address"
        }
      ],
      "name": "transferOwnership",
      "outputs": [],
      "stateMutability": "nonpayable",
      "type": "function"
    }
  ],
  "bytecode": "0x608060405234801561001057600080fd5b506040516114b23803806114b283398101604081905261002f91610124565b806040518060400160405280600d81526020016c1499585b115cdd185d19539195609a1b8152506040518060400160405280600681526020016514914b53919560d21b815250816000908161008491906101f3565b50600161009182826101f3565b5050506001600160a01b0381166100c257604051631e4fbdf760e01b81526000600482015260240160405180910390fd5b6100cb816100d2565b50506102b1565b600680546001600160a01b038381166001600160a01b0319831681179093556040519116919082907f8be0079c531659141344cd1fd0a4f28419497f9722a3daafe3b4186f6b6457e090600090a35050565b60006020828403121561013657600080fd5b81516001600160a01b038116811461014d57600080fd5b9392505050565b634e487b7160e01b600052604160045260246000fd5b600181811c9082168061017e57607f821691505b60208210810361019e57634e487b7160e01b600052602260045260246000fd5b50919050565b601f8211156101ee57806000526020600020601f840160051c810160208510156101cb5750805b601f840160051c820191505b818110156101eb57600081556001016101d7565b50505b505050565b81516001600160401b0381111561020c5761020c610154565b6102208161021a845461016a565b846101a4565b6020601f821160018114610254576000831561023c5750848201515b600019600385901b1c1916600184901b1784556101eb565b600084815260208120601f198516915b828110156102845787850151825560209485019460019092019101610264565b50848210156102a25786840151600019600387901b60f8161c191681555b50505050600190811b01905550565b6111f2806102c06000396000f3fe608060405234801561001057600080fd5b50600436106101215760003560e01c806370a08231116100ad578063a22cb46511610071578063a22cb4651461024d578063b88d4fde14610260578063c87b56dd14610273578063e985e9c514610286578063f2fde38b1461029957600080fd5b806370a0823114610202578063715018a61461022357806375794a3c1461022b5780638da5cb5b1461023457806395d89b411461024557600080fd5b806323b872dd116100f457806323b872dd146101a3578063379269e7146101b657806342842e0e146101c95780636352211e146101dc5780636e777dd8146101ef57600080fd5b806301ffc9a71461012657806306fdde031461014e578063081812fc14610163578063095ea7b31461018e575b600080fd5b610139610134366004610cb3565b6102ac565b60405190151581526020015b60405180910390f35b6101566102fe565b6040516101459190610d1d565b610176610171366004610d30565b610390565b6040516001600160a01b039091168152602001610145565b6101a161019c366004610d65565b6103b9565b005b6101a16101b1366004610d8f565b6103c8565b6101566101c4366004610d30565b610458565b6101a16101d7366004610d8f565b6104fd565b6101766101ea366004610d30565b61051d565b6101a16101fd366004610e7c565b610528565b610215610210366004610ef5565b610597565b604051908152602001610145565b6101a16105df565b61021560075481565b6006546001600160a01b0316610176565b6101566105f3565b6101a161025b366004610f10565b610602565b6101a161026e366004610f4c565b61060d565b610156610281366004610d30565b610625565b610139610294366004610fc8565b610642565b6101a16102a7366004610ef5565b610670565b60006001600160e01b031982166380ac58cd60e01b14806102dd57506001600160e01b03198216635b5e139f60e01b145b806102f857506301ffc9a760e01b6001600160e01b03198316145b92915050565b60606000805461030d90610ffb565b80601f016020809104026020016040519081016040528092919081815260200182805461033990610ffb565b80156103865780601f1061035b57610100808354040283529160200191610386565b820191906000526020600020905b81548152906001019060200180831161036957829003601f168201915b5050505050905090565b600061039b826106ae565b506000828152600460205260409020546001600160a01b03166102f8565b6103c48282336106e7565b5050565b6001600160a01b0382166103f757604051633250574960e11b8152600060048201526024015b60405180910390fd5b60006104048383336106f4565b9050836001600160a01b0316816001600160a01b031614610452576040516364283d7b60e01b81526001600160a01b03808616600483015260248201849052821660448201526064016103ee565b50505050565b600081815260086020526040902060010180546060919061047890610ffb565b80601f01602080910402602001604051908101604052809291908181526020018280546104a490610ffb565b80156104f15780601f106104c6576101008083540402835291602001916104f1565b820191906000526020600020905b8154815290600101906020018083116104d457829003601f168201915b50505050509050919050565b6105188383836040518060200160405280600081525061060d565b505050565b60006102f8826106ae565b600780546000918261053983611035565b91905055905061054984826107ed565b604080518082018252848152602080820185905260008481526008909152919091208151819061057990826110a3565b506020820151600182019061058e90826110a3565b50505050505050565b60006001600160a01b0382166105c3576040516322718ad960e21b8152600060048201526024016103ee565b506001600160a01b031660009081526003602052604090205490565b6105e7610807565b6105f16000610834565b565b60606001805461030d90610ffb565b6103c4338383610886565b6106188484846103c8565b6104523385858585610925565b600081815260086020526040902080546060919061047890610ffb565b6001600160a01b03918216600090815260056020908152604080832093909416825291909152205460ff1690565b610678610807565b6001600160a01b0381166106a257604051631e4fbdf760e01b8152600060048201526024016103ee565b6106ab81610834565b50565b6000818152600260205260408120546001600160a01b0316806102f857604051637e27328960e01b8152600481018490526024016103ee565b6105188383836001610a50565b6000828152600260205260408120546001600160a01b039081169083161561072157610721818486610b56565b6001600160a01b0381161561075f5761073e600085600080610a50565b6001600160a01b038116600090815260036020526040902080546000190190555b6001600160a01b0385161561078e576001600160a01b0385166000908152600360205260409020805460010190555b60008481526002602052604080822080546001600160a01b0319166001600160a01b0389811691821790925591518793918516917fddf252ad1be2c89b69c2b068fc378daa952ba7f163c4a11628f55a4df523b3ef91a4949350505050565b6103c4828260405180602001604052806000815250610bba565b6006546001600160a01b031633146105f15760405163118cdaa760e01b81523360048201526024016103ee565b600680546001600160a01b038381166001600160a01b0319831681179093556040519116919082907f8be0079c531659141344cd1fd0a4f28419497f9722a3daafe3b4186f6b6457e090600090a35050565b6001600160a01b0382166108b857604051630b61174360e31b81526001600160a01b03831660048201526024016103ee565b6001600160a01b03838116600081815260056020908152604080832094871680845294825291829020805460ff191686151590811790915591519182527f17307eab39ab6107e8899845ad3d59bd9653f200f220920489ca2b5937696c31910160405180910390a3505050565b6001600160a01b0383163b15610a4957604051630a85bd0160e11b81526001600160a01b0384169063150b7a0290610967908890889087908790600401611162565b6020604051808303816000875af19250505080156109a2575060408051601f3d908101601f1916820190925261099f9181019061119f565b60015b610a0b573d8080156109d0576040519150601f19603f3d011682016040523d82523d6000602084013e6109d5565b606091505b508051600003610a0357604051633250574960e11b81526001600160a01b03851660048201526024016103ee565b805160208201fd5b6001600160e01b03198116630a85bd0160e11b14610a4757604051633250574960e11b81526001600160a01b03851660048201526024016103ee565b505b5050505050565b8080610a6457506001600160a01b03821615155b15610b26576000610a74846106ae565b90506001600160a01b03831615801590610aa05750826001600160a01b0316816001600160a01b031614155b8015610ab35750610ab18184610642565b155b15610adc5760405163a9fbf51f60e01b81526001600160a01b03841660048201526024016103ee565b8115610b245783856001600160a01b0316826001600160a01b03167f8c5be1e5ebec7d5bd14f71427d1e84f3dd0314c0f7b2291e5b200ac8c7c3b92560405160405180910390a45b505b5050600090815260046020526040902080546001600160a01b0319166001600160a01b0392909216919091179055565b610b61838383610bd2565b610518576001600160a01b038316610b8f57604051637e27328960e01b8152600481018290526024016103ee565b60405163177e802f60e01b81526001600160a01b0383166004820152602481018290526044016103ee565b610bc48383610c38565b610518336000858585610925565b60006001600160a01b03831615801590610c305750826001600160a01b0316846001600160a01b03161480610c0c5750610c0c8484610642565b80610c3057506000828152600460205260409020546001600160a01b038481169116145b949350505050565b6001600160a01b038216610c6257604051633250574960e11b8152600060048201526024016103ee565b6000610c70838360006106f4565b90506001600160a01b03811615610518576040516339e3563760e11b8152600060048201526024016103ee565b6001600160e01b0319811681146106ab57600080fd5b600060208284031215610cc557600080fd5b8135610cd081610c9d565b9392505050565b6000815180845260005b81811015610cfd57602081850181015186830182015201610ce1565b506000602082860101526020601f19601f83011685010191505092915050565b602081526000610cd06020830184610cd7565b600060208284031215610d4257600080fd5b5035919050565b80356001600160a01b0381168114610d6057600080fd5b919050565b60008060408385031215610d7857600080fd5b610d8183610d49565b946020939093013593505050565b600080600060608486031215610da457600080fd5b610dad84610d49565b9250610dbb60208501610d49565b929592945050506040919091013590565b634e487b7160e01b600052604160045260246000fd5b60008067ffffffffffffffff841115610dfd57610dfd610dcc565b50604051601f19601f85018116603f0116810181811067ffffffffffffffff82111715610e2c57610e2c610dcc565b604052838152905080828401851015610e4457600080fd5b83836020830137600060208583010152509392505050565b600082601f830112610e6d57600080fd5b610cd083833560208501610de2565b600080600060608486031215610e9157600080fd5b610e9a84610d49565b9250602084013567ffffffffffffffff811115610eb657600080fd5b610ec286828701610e5c565b925050604084013567ffffffffffffffff811115610edf57600080fd5b610eeb86828701610e5c565b9150509250925092565b600060208284031215610f0757600080fd5b610cd082610d49565b60008060408385031215610f2357600080fd5b610f2c83610d49565b915060208301358015158114610f4157600080fd5b809150509250929050565b60008060008060808587031215610f6257600080fd5b610f6b85610d49565b9350610f7960208601610d49565b925060408501359150606085013567ffffffffffffffff811115610f9c57600080fd5b8501601f81018713610fad57600080fd5b610fbc87823560208401610de2565b91505092959194509250565b60008060408385031215610fdb57600080fd5b610fe483610d49565b9150610ff260208401610d49565b90509250929050565b600181811c9082168061100f57607f821691505b60208210810361102f57634e487b7160e01b600052602260045260246000fd5b50919050565b60006001820161105557634e487b7160e01b600052601160045260246000fd5b5060010190565b601f82111561051857806000526020600020601f840160051c810160208510156110835750805b601f840160051c820191505b81811015610a49576000815560010161108f565b815167ffffffffffffffff8111156110bd576110bd610dcc565b6110d1816110cb8454610ffb565b8461105c565b6020601f82116001811461110557600083156110ed5750848201515b600019600385901b1c1916600184901b178455610a49565b600084815260208120601f198516915b828110156111355787850151825560209485019460019092019101611115565b50848210156111535786840151600019600387901b60f8161c191681555b50505050600190811b01905550565b6001600160a01b038581168252841660208201526040810183905260806060820181905260009061119590830184610cd7565b9695505050505050565b6000602082840312156111b157600080fd5b8151610cd081610c9d56fea2646970667358221220851cb5abb7e852633f80c573c3c73c3bddc921d41bcf636b5be6276e842afa0e64736f6c634300081b0033",
  "linkReferences": {},
  "deployedLinkReferences": {}
}